{
  "contractName": "AMNToken",
  "abi": [
    {
      "constant": true,
      "inputs": [],
      "name": "name",
      "outputs": [
        {
          "name": "",
          "type": "string"
        }
      ],
      "payable": false,
      "stateMutability": "view",
      "type": "function"
    },
    {
      "constant": false,
      "inputs": [
        {
          "name": "_spender",
          "type": "address"
        },
        {
          "name": "_value",
          "type": "uint256"
        }
      ],
      "name": "approve",
      "outputs": [
        {
          "name": "",
          "type": "bool"
        }
      ],
      "payable": false,
      "stateMutability": "nonpayable",
      "type": "function"
    },
    {
      "constant": true,
      "inputs": [],
      "name": "totalSupply",
      "outputs": [
        {
          "name": "",
          "type": "uint256"
        }
      ],
      "payable": false,
      "stateMutability": "view",
      "type": "function"
    },
    {
      "constant": false,
      "inputs": [
        {
          "name": "_from",
          "type": "address"
        },
        {
          "name": "_to",
          "type": "address"
        },
        {
          "name": "_value",
          "type": "uint256"
        }
      ],
      "name": "transferFrom",
      "outputs": [
        {
          "name": "success",
          "type": "bool"
        }
      ],
      "payable": false,
      "stateMutability": "nonpayable",
      "type": "function"
    },
    {
      "constant": true,
      "inputs": [],
      "name": "decimals",
      "outputs": [
        {
          "name": "",
          "type": "uint8"
        }
      ],
      "payable": false,
      "stateMutability": "view",
      "type": "function"
    },
    {
      "constant": false,
      "inputs": [
        {
          "name": "_spender",
          "type": "address"
        },
        {
          "name": "_subtractedValue",
          "type": "uint256"
        }
      ],
      "name": "decreaseApproval",
      "outputs": [
        {
          "name": "",
          "type": "bool"
        }
      ],
      "payable": false,
      "stateMutability": "nonpayable",
      "type": "function"
    },
    {
      "constant": true,
      "inputs": [
        {
          "name": "_owner",
          "type": "address"
        }
      ],
      "name": "balanceOf",
      "outputs": [
        {
          "name": "balance",
          "type": "uint256"
        }
      ],
      "payable": false,
      "stateMutability": "view",
      "type": "function"
    },
    {
      "constant": true,
      "inputs": [],
      "name": "symbol",
      "outputs": [
        {
          "name": "",
          "type": "string"
        }
      ],
      "payable": false,
      "stateMutability": "view",
      "type": "function"
    },
    {
      "constant": false,
      "inputs": [
        {
          "name": "_to",
          "type": "address"
        },
        {
          "name": "_value",
          "type": "uint256"
        }
      ],
      "name": "transfer",
      "outputs": [
        {
          "name": "success",
          "type": "bool"
        }
      ],
      "payable": false,
      "stateMutability": "nonpayable",
      "type": "function"
    },
    {
      "constant": false,
      "inputs": [
        {
          "name": "_from",
          "type": "address"
        },
        {
          "name": "_to",
          "type": "address"
        },
        {
          "name": "_value",
          "type": "uint256"
        },
        {
          "name": "_data",
          "type": "bytes"
        }
      ],
      "name": "transferFrom",
      "outputs": [
        {
          "name": "",
          "type": "bool"
        }
      ],
      "payable": false,
      "stateMutability": "nonpayable",
      "type": "function"
    },
    {
      "constant": false,
      "inputs": [
        {
          "name": "_to",
          "type": "address"
        },
        {
          "name": "_value",
          "type": "uint256"
        },
        {
          "name": "_data",
          "type": "bytes"
        }
      ],
      "name": "transfer",
      "outputs": [
        {
          "name": "success",
          "type": "bool"
        }
      ],
      "payable": false,
      "stateMutability": "nonpayable",
      "type": "function"
    },
    {
      "constant": false,
      "inputs": [
        {
          "name": "_spender",
          "type": "address"
        },
        {
          "name": "_addedValue",
          "type": "uint256"
        }
      ],
      "name": "increaseApproval",
      "outputs": [
        {
          "name": "",
          "type": "bool"
        }
      ],
      "payable": false,
      "stateMutability": "nonpayable",
      "type": "function"
    },
    {
      "constant": true,
      "inputs": [
        {
          "name": "_owner",
          "type": "address"
        },
        {
          "name": "_spender",
          "type": "address"
        }
      ],
      "name": "allowance",
      "outputs": [
        {
          "name": "",
          "type": "uint256"
        }
      ],
      "payable": false,
      "stateMutability": "view",
      "type": "function"
    },
    {
      "inputs": [],
      "payable": false,
      "stateMutability": "nonpayable",
      "type": "constructor"
    },
    {
      "payable": false,
      "stateMutability": "nonpayable",
      "type": "fallback"
    },
    {
      "anonymous": false,
      "inputs": [
        {
          "indexed": true,
          "name": "owner",
          "type": "address"
        },
        {
          "indexed": true,
          "name": "spender",
          "type": "address"
        },
        {
          "indexed": false,
          "name": "value",
          "type": "uint256"
        }
      ],
      "name": "Approval",
      "type": "event"
    },
    {
      "anonymous": false,
      "inputs": [
        {
          "indexed": true,
          "name": "_from",
          "type": "address"
        },
        {
          "indexed": true,
          "name": "_to",
          "type": "address"
        },
        {
          "indexed": true,
          "name": "_value",
          "type": "uint256"
        },
        {
          "indexed": false,
          "name": "_data",
          "type": "bytes"
        }
      ],
      "name": "Transfer",
      "type": "event"
    },
    {
      "anonymous": false,
      "inputs": [
        {
          "indexed": true,
          "name": "from",
          "type": "address"
        },
        {
          "indexed": true,
          "name": "to",
          "type": "address"
        },
        {
          "indexed": false,
          "name": "value",
          "type": "uint256"
        }
      ],
      "name": "Transfer",
      "type": "event"
    }
  ],
  "bytecode": "0x6060604052341561000f57600080fd5b604080519081016040908152600482527f416d6f6e0000000000000000000000000000000000000000000000000000000060208301528051908101604052600381527f414d4e000000000000000000000000000000000000000000000000000000000060208201526012600083805161008c9291602001906100e7565b5060018280516100a09291602001906100e7565b506002805460ff191660ff9290921691909117905550506b052b7d2dcc80cd2e40000000600481905533600160a060020a0316600090815260036020526040902055610182565b828054600181600116156101000203166002900490600052602060002090601f016020900481019282601f1061012857805160ff1916838001178555610155565b82800160010185558215610155579182015b8281111561015557825182559160200191906001019061013a565b50610161929150610165565b5090565b61017f91905b80821115610161576000815560010161016b565b90565b610ced806101916000396000f3006060604052600436106100ab5763ffffffff60e060020a60003504166306fdde0381146100bb578063095ea7b31461014557806318160ddd1461017b57806323b872dd146101a0578063313ce567146101c857806366188463146101f157806370a082311461021357806395d89b4114610232578063a9059cbb14610245578063ab67aa5814610267578063be45fd62146102d3578063d73dd62314610338578063dd62ed3e1461035a575b34156100b657600080fd5b600080fd5b34156100c657600080fd5b6100ce61037f565b60405160208082528190810183818151815260200191508051906020019080838360005b8381101561010a5780820151838201526020016100f2565b50505050905090810190601f1680156101375780820380516001836020036101000a031916815260200191505b509250505060405180910390f35b341561015057600080fd5b610167600160a060020a036004351660243561041d565b604051901515815260200160405180910390f35b341561018657600080fd5b61018e610489565b60405190815260200160405180910390f35b34156101ab57600080fd5b610167600160a060020a036004358116906024351660443561048f565b34156101d357600080fd5b6101db6104ae565b60405160ff909116815260200160405180910390f35b34156101fc57600080fd5b610167600160a060020a03600435166024356104b7565b341561021e57600080fd5b61018e600160a060020a03600435166105b1565b341561023d57600080fd5b6100ce6105cc565b341561025057600080fd5b610167600160a060020a0360043516602435610637565b341561027257600080fd5b610167600160a060020a036004803582169160248035909116916044359160849060643590810190830135806020601f8201819004810201604051908101604052818152929190602084018383808284375094965061065495505050505050565b34156102de57600080fd5b61016760048035600160a060020a03169060248035919060649060443590810190830135806020601f8201819004810201604051908101604052818152929190602084018383808284375094965061094c95505050505050565b341561034357600080fd5b610167600160a060020a0360043516602435610bb8565b341561036557600080fd5b61018e600160a060020a0360043581169060243516610c5c565b60008054600181600116156101000203166002900480601f0160208091040260200160405190810160405280929190818152602001828054600181600116156101000203166002900480156104155780601f106103ea57610100808354040283529160200191610415565b820191906000526020600020905b8154815290600101906020018083116103f857829003601f168201915b505050505081565b600160a060020a03338116600081815260056020908152604080832094871680845294909152808220859055909291907f8c5be1e5ebec7d5bd14f71427d1e84f3dd0314c0f7b2291e5b200ac8c7c3b9259085905190815260200160405180910390a350600192915050565b60045490565b6000610499610caf565b6104a585858584610654565b95945050505050565b60025460ff1681565b600160a060020a0333811660009081526005602090815260408083209386168352929052908120548083111561051457600160a060020a03338116600090815260056020908152604080832093881683529290529081205561054b565b610524818463ffffffff610c8716565b600160a060020a033381166000908152600560209081526040808320938916835292905220555b600160a060020a0333811660008181526005602090815260408083209489168084529490915290819020547f8c5be1e5ebec7d5bd14f71427d1e84f3dd0314c0f7b2291e5b200ac8c7c3b925915190815260200160405180910390a35060019392505050565b600160a060020a031660009081526003602052604090205490565b60018054600181600116156101000203166002900480601f0160208091040260200160405190810160405280929190818152602001828054600181600116156101000203166002900480156104155780601f106103ea57610100808354040283529160200191610415565b6000610641610caf565b61064c84848361094c565b949350505050565b600080600160a060020a038516151561066c57600080fd5b600160a060020a03861660009081526003602052604090205484111561069157600080fd5b600160a060020a03808716600090815260056020908152604080832033909416835292905220548411156106c457600080fd5b600160a060020a0386166000908152600360205260409020546106ed908563ffffffff610c8716565b600160a060020a038088166000908152600360205260408082209390935590871681522054610722908563ffffffff610c9916565b600160a060020a0380871660009081526003602090815260408083209490945589831682526005815283822033909316825291909152205461076a908563ffffffff610c8716565b600160a060020a0380881660009081526005602090815260408083203390941683529290528181209290925573__ERC223Utils___________________________91631627905591889190516020015260405160e060020a63ffffffff8416028152600160a060020a03909116600482015260240160206040518083038186803b15156107f657600080fd5b6102c65a03f4151561080757600080fd5b50505060405180519050156108f9575083600160a060020a03811663c0ee0b8a8786866040518463ffffffff1660e060020a0281526004018084600160a060020a0316600160a060020a0316815260200183815260200180602001828103825283818151815260200191508051906020019080838360005b8381101561089757808201518382015260200161087f565b50505050905090810190601f1680156108c45780820380516001836020036101000a031916815260200191505b50945050505050600060405180830381600087803b15156108e457600080fd5b6102c65a03f115156108f557600080fd5b5050505b84600160a060020a031686600160a060020a03167fddf252ad1be2c89b69c2b068fc378daa952ba7f163c4a11628f55a4df523b3ef8660405190815260200160405180910390a350600195945050505050565b600080600160a060020a038516151561096457600080fd5b600160a060020a03331660009081526003602052604090205484111561098957600080fd5b600160a060020a0333166000908152600360205260409020546109b2908563ffffffff610c8716565b600160a060020a0333811660009081526003602052604080822093909355908716815220546109e7908563ffffffff610c9916565b600160a060020a0386166000908152600360205260408082209290925573__ERC223Utils___________________________916316279055918891516020015260405160e060020a63ffffffff8416028152600160a060020a03909116600482015260240160206040518083038186803b1515610a6357600080fd5b6102c65a03f41515610a7457600080fd5b5050506040518051905015610b66575083600160a060020a03811663c0ee0b8a3386866040518463ffffffff1660e060020a0281526004018084600160a060020a0316600160a060020a0316815260200183815260200180602001828103825283818151815260200191508051906020019080838360005b83811015610b04578082015183820152602001610aec565b50505050905090810190601f168015610b315780820380516001836020036101000a031916815260200191505b50945050505050600060405180830381600087803b1515610b5157600080fd5b6102c65a03f11515610b6257600080fd5b5050505b84600160a060020a031633600160a060020a03167fddf252ad1be2c89b69c2b068fc378daa952ba7f163c4a11628f55a4df523b3ef8660405190815260200160405180910390a3506001949350505050565b600160a060020a033381166000908152600560209081526040808320938616835292905290812054610bf0908363ffffffff610c9916565b600160a060020a0333811660008181526005602090815260408083209489168084529490915290819020849055919290917f8c5be1e5ebec7d5bd14f71427d1e84f3dd0314c0f7b2291e5b200ac8c7c3b92591905190815260200160405180910390a350600192915050565b600160a060020a03918216600090815260056020908152604080832093909416825291909152205490565b600082821115610c9357fe5b50900390565b600082820183811015610ca857fe5b9392505050565b602060405190810160405260008152905600a165627a7a723058207d082e8592e1229bddad9260bb41160d4727129189c7d8b486991f2dfea2064a0029",
  "source": "pragma solidity ^0.4.19;\n\nimport \"zeppelin-solidity/contracts/token/ERC20/DetailedERC20.sol\";\nimport './ERC223/ERC223_StandardToken.sol';\n\ncontract AMNToken is DetailedERC20, ERC223StandardToken {\n    string constant  NAME = \"Amon\";\n    string constant  SYMBOL = \"AMN\";\n    uint8 constant   DECIMALS = 18;\n    uint256 constant INITIAL_SUPPLY = (1.6 * 10 ** 9) * (uint256(10) ** DECIMALS);\n\n    /**\n      *@dev Constructor that set the token initial parameters\n      */\n    function AMNToken()\n        DetailedERC20(NAME, SYMBOL, DECIMALS)\n        public\n    {\n      totalSupply_ = INITIAL_SUPPLY;\n      balances[msg.sender] = INITIAL_SUPPLY;\n    }\n}\n",
  "sourcePath": "/Users/paco/Development/amon/token-contract/contracts/AMNToken.sol",
  "compiler": {
    "name": "solc",
    "version": "0.4.19+commit.c4cbbb05.Emscripten.clang"
  },
  "schemaVersion": "1.0.1",
  "updatedAt": "2018-02-22T15:12:21.049Z"
}