{
  "contractName": "ERC223ReceivingContract",
  "abi": [
    {
      "anonymous": false,
      "inputs": [
        {
          "indexed": true,
          "name": "sender",
          "type": "address"
        },
        {
          "indexed": true,
          "name": "token",
          "type": "address"
        },
        {
          "indexed": false,
          "name": "value",
          "type": "uint256"
        },
        {
          "indexed": false,
          "name": "_data",
          "type": "bytes"
        }
      ],
      "name": "TokenDeposit",
      "type": "event"
    },
    {
      "constant": false,
      "inputs": [
        {
          "name": "_from",
          "type": "address"
        },
        {
          "name": "_value",
          "type": "uint256"
        },
        {
          "name": "_data",
          "type": "bytes"
        }
      ],
      "name": "tokenFallback",
      "outputs": [],
      "payable": false,
      "stateMutability": "nonpayable",
      "type": "function"
    }
  ],
  "bytecode": "0x6060604052341561000f57600080fd5b6101c28061001e6000396000f3006060604052600436106100405763ffffffff7c0100000000000000000000000000000000000000000000000000000000600035041663c0ee0b8a8114610045575b600080fd5b341561005057600080fd5b6100b76004803573ffffffffffffffffffffffffffffffffffffffff169060248035919060649060443590810190830135806020601f820181900481020160405190810160405281815292919060208401838380828437509496506100b995505050505050565b005b6000821115610191573373ffffffffffffffffffffffffffffffffffffffff168373ffffffffffffffffffffffffffffffffffffffff167f55619005194c319e5c426456d42fe6417ad712ccbbf7753c4db10b0bffd9a396848460405182815260406020820181815290820183818151815260200191508051906020019080838360005b8381101561015557808201518382015260200161013d565b50505050905090810190601f1680156101825780820380516001836020036101000a031916815260200191505b50935050505060405180910390a35b5050505600a165627a7a723058208bae61a2e5ca2072bc54a1b7570a21cb4fef71abb280a9309687005586958e450029",
  "source": "pragma solidity ^0.4.19;\n\n /**\n * @title Contract that will work with ERC223 tokens.\n */\n\ncontract ERC223ReceivingContract {\n\n    event TokenDeposit(address indexed sender, address indexed token, uint value, bytes _data);\n\n    /**\n     * @dev Standard ERC223 function that will handle incoming token transfers.\n     *\n     * @param _from  Token sender address.\n     * @param _value Amount of tokens.\n     * @param _data  Transaction metadata.\n     */\n    function tokenFallback(address _from, uint _value, bytes _data) public {\n\n        if (_value > 0)\n            TokenDeposit(_from, msg.sender, _value, _data);\n\n    }\n}\n",
  "sourcePath": "/Users/paco/Development/amon/token-contract/contracts/ERC223/ERC223_ReceivingContract.sol",
  "compiler": {
    "name": "solc",
    "version": "0.4.19+commit.c4cbbb05.Emscripten.clang"
  },
  "schemaVersion": "1.0.1",
  "updatedAt": "2018-02-22T16:06:59.985Z"
}