{
  "contractName": "ERC223BasicToken",
  "abi": [
    {
      "constant": true,
      "inputs": [],
      "name": "totalSupply",
      "outputs": [
        {
          "name": "",
          "type": "uint256"
        }
      ],
      "payable": false,
      "stateMutability": "view",
      "type": "function"
    },
    {
      "constant": true,
      "inputs": [
        {
          "name": "_owner",
          "type": "address"
        }
      ],
      "name": "balanceOf",
      "outputs": [
        {
          "name": "balance",
          "type": "uint256"
        }
      ],
      "payable": false,
      "stateMutability": "view",
      "type": "function"
    },
    {
      "payable": false,
      "stateMutability": "nonpayable",
      "type": "fallback"
    },
    {
      "anonymous": false,
      "inputs": [
        {
          "indexed": true,
          "name": "_from",
          "type": "address"
        },
        {
          "indexed": true,
          "name": "_to",
          "type": "address"
        },
        {
          "indexed": true,
          "name": "_value",
          "type": "uint256"
        },
        {
          "indexed": false,
          "name": "_data",
          "type": "bytes"
        }
      ],
      "name": "Transfer",
      "type": "event"
    },
    {
      "anonymous": false,
      "inputs": [
        {
          "indexed": true,
          "name": "from",
          "type": "address"
        },
        {
          "indexed": true,
          "name": "to",
          "type": "address"
        },
        {
          "indexed": false,
          "name": "value",
          "type": "uint256"
        }
      ],
      "name": "Transfer",
      "type": "event"
    },
    {
      "constant": false,
      "inputs": [
        {
          "name": "_to",
          "type": "address"
        },
        {
          "name": "_value",
          "type": "uint256"
        }
      ],
      "name": "transfer",
      "outputs": [
        {
          "name": "success",
          "type": "bool"
        }
      ],
      "payable": false,
      "stateMutability": "nonpayable",
      "type": "function"
    },
    {
      "constant": false,
      "inputs": [
        {
          "name": "_to",
          "type": "address"
        },
        {
          "name": "_value",
          "type": "uint256"
        },
        {
          "name": "_data",
          "type": "bytes"
        }
      ],
      "name": "transfer",
      "outputs": [
        {
          "name": "success",
          "type": "bool"
        }
      ],
      "payable": false,
      "stateMutability": "nonpayable",
      "type": "function"
    }
  ],
  "bytecode": "0x6060604052341561000f57600080fd5b6104478061001e6000396000f3006060604052600436106100485763ffffffff60e060020a60003504166318160ddd811461005857806370a082311461007d578063a9059cbb1461009c578063be45fd62146100d2575b341561005357600080fd5b600080fd5b341561006357600080fd5b61006b610137565b60405190815260200160405180910390f35b341561008857600080fd5b61006b600160a060020a036004351661013d565b34156100a757600080fd5b6100be600160a060020a0360043516602435610158565b604051901515815260200160405180910390f35b34156100dd57600080fd5b6100be60048035600160a060020a03169060248035919060649060443590810190830135806020601f8201819004810201604051908101604052818152929190602084018383808284375094965061017595505050505050565b60015490565b600160a060020a031660009081526020819052604090205490565b6000610162610409565b61016d848483610175565b949350505050565b600080600160a060020a038516151561018d57600080fd5b600160a060020a0333166000908152602081905260409020548411156101b257600080fd5b600160a060020a0333166000908152602081905260409020546101db908563ffffffff6103e116565b600160a060020a033381166000908152602081905260408082209390935590871681522054610210908563ffffffff6103f316565b600160a060020a0386166000908152602081905260408082209290925573__ERC223Utils___________________________916316279055918891516020015260405160e060020a63ffffffff8416028152600160a060020a03909116600482015260240160206040518083038186803b151561028c57600080fd5b6102c65a03f4151561029d57600080fd5b505050604051805190501561038f575083600160a060020a03811663c0ee0b8a3386866040518463ffffffff1660e060020a0281526004018084600160a060020a0316600160a060020a0316815260200183815260200180602001828103825283818151815260200191508051906020019080838360005b8381101561032d578082015183820152602001610315565b50505050905090810190601f16801561035a5780820380516001836020036101000a031916815260200191505b50945050505050600060405180830381600087803b151561037a57600080fd5b6102c65a03f1151561038b57600080fd5b5050505b84600160a060020a031633600160a060020a03167fddf252ad1be2c89b69c2b068fc378daa952ba7f163c4a11628f55a4df523b3ef8660405190815260200160405180910390a3506001949350505050565b6000828211156103ed57fe5b50900390565b60008282018381101561040257fe5b9392505050565b602060405190810160405260008152905600a165627a7a723058205ba0f54fb486baa3a199846be42561ccbf21cb0c3f88844027f1ae8ac688ce910029",
  "source": "pragma solidity ^0.4.19;\n\nimport \"zeppelin-solidity/contracts/token/ERC20/BasicToken.sol\";\n\nimport './ERC223_Interface.sol';\nimport './ERC223_ReceivingInterface.sol';\nimport './ERC223_Utils.sol';\n\n/**\n * @title ERC223 basic token implementation.\n */\ncontract ERC223BasicToken is ERC223Interface, BasicToken {\n\n    using SafeMath for uint256;\n\n    function() public {\n        //if ether is sent to this address, send it back.\n        revert();\n    }\n\n    // Standard function transfer similar to ERC20 transfer with no _data .\n    // Added due to backwards compatibility reasons .\n    function transfer(address _to, uint _value) public returns (bool success) {\n\n      bytes memory empty;\n      return transfer(_to, _value, empty);\n\n    }\n\n    /**\n     * @dev Transfer tokens to another from sender\n     * @param _to address The address which you want to transfer to\n     * @param _value uint256 the amount of tokens to be transferred\n     * @param _data bytes data to attach that will be stored as event\n     */\n    function transfer(address _to, uint _value, bytes _data) public returns (bool success) {\n\n      if((_to == address(0))) revert();\n      if(_value > balances[msg.sender]) revert();\n\n      balances[msg.sender] = balances[msg.sender].sub(_value);\n      balances[_to] = balances[_to].add(_value);\n\n      if(ERC223Utils.isContract(_to)) {\n        ERC223ReceivingInterface receiver = ERC223ReceivingInterface(_to);\n        receiver.tokenFallback(msg.sender, _value, _data);\n      }\n\n      Transfer(msg.sender, _to, _value);\n      return true;\n\n  }\n\n}\n",
  "sourcePath": "/Users/paco/Development/amon/token-contract/contracts/ERC223/ERC223_BasicToken.sol",
  "compiler": {
    "name": "solc",
    "version": "0.4.19+commit.c4cbbb05.Emscripten.clang"
  },
  "schemaVersion": "1.0.1",
  "updatedAt": "2018-02-22T16:06:59.984Z"
}