{
  "contractName": "ERC223Utils",
  "abi": [
    {
      "constant": true,
      "inputs": [
        {
          "name": "_addr",
          "type": "address"
        }
      ],
      "name": "isContract",
      "outputs": [
        {
          "name": "is_contract",
          "type": "bool"
        }
      ],
      "payable": false,
      "stateMutability": "view",
      "type": "function"
    }
  ],
  "bytecode": "0x6060604052341561000f57600080fd5b60aa8061001d6000396000f300606060405260043610603e5763ffffffff7c01000000000000000000000000000000000000000000000000000000006000350416631627905581146043575b600080fd5b606273ffffffffffffffffffffffffffffffffffffffff600435166076565b604051901515815260200160405180910390f35b6000903b11905600a165627a7a7230582096bbc09b7e21404e08b99b03d484d446e709fc3ae26f2f8a83730e9c4a3a5ea00029",
  "source": "pragma solidity ^0.4.19;\n\n/**\n * @title ERC223Utils\n * @dev Detect contracts\n */\nlibrary ERC223Utils {\n\n    //assemble the given address bytecode. If bytecode exists then the _addr is a contract.\n    function isContract(address _addr) public view returns (bool is_contract) {\n      uint length;\n      assembly {\n            //retrieve the size of the code on target address, this needs assembly\n            length := extcodesize(_addr)\n      }\n      return (length>0);\n    }\n\n}\n",
  "sourcePath": "/Users/paco/Development/amon/token-contract/contracts/ERC223/ERC223_Utils.sol",
  "compiler": {
    "name": "solc",
    "version": "0.4.19+commit.c4cbbb05.Emscripten.clang"
  },
  "schemaVersion": "1.0.1",
  "updatedAt": "2018-02-22T16:06:59.986Z"
}