{
  "contractName": "ERC223StandardToken",
  "abi": [
    {
      "constant": false,
      "inputs": [
        {
          "name": "_spender",
          "type": "address"
        },
        {
          "name": "_value",
          "type": "uint256"
        }
      ],
      "name": "approve",
      "outputs": [
        {
          "name": "",
          "type": "bool"
        }
      ],
      "payable": false,
      "stateMutability": "nonpayable",
      "type": "function"
    },
    {
      "constant": true,
      "inputs": [],
      "name": "totalSupply",
      "outputs": [
        {
          "name": "",
          "type": "uint256"
        }
      ],
      "payable": false,
      "stateMutability": "view",
      "type": "function"
    },
    {
      "constant": false,
      "inputs": [
        {
          "name": "_spender",
          "type": "address"
        },
        {
          "name": "_subtractedValue",
          "type": "uint256"
        }
      ],
      "name": "decreaseApproval",
      "outputs": [
        {
          "name": "",
          "type": "bool"
        }
      ],
      "payable": false,
      "stateMutability": "nonpayable",
      "type": "function"
    },
    {
      "constant": true,
      "inputs": [
        {
          "name": "_owner",
          "type": "address"
        }
      ],
      "name": "balanceOf",
      "outputs": [
        {
          "name": "balance",
          "type": "uint256"
        }
      ],
      "payable": false,
      "stateMutability": "view",
      "type": "function"
    },
    {
      "constant": false,
      "inputs": [
        {
          "name": "_to",
          "type": "address"
        },
        {
          "name": "_value",
          "type": "uint256"
        }
      ],
      "name": "transfer",
      "outputs": [
        {
          "name": "success",
          "type": "bool"
        }
      ],
      "payable": false,
      "stateMutability": "nonpayable",
      "type": "function"
    },
    {
      "constant": false,
      "inputs": [
        {
          "name": "_to",
          "type": "address"
        },
        {
          "name": "_value",
          "type": "uint256"
        },
        {
          "name": "_data",
          "type": "bytes"
        }
      ],
      "name": "transfer",
      "outputs": [
        {
          "name": "success",
          "type": "bool"
        }
      ],
      "payable": false,
      "stateMutability": "nonpayable",
      "type": "function"
    },
    {
      "constant": false,
      "inputs": [
        {
          "name": "_spender",
          "type": "address"
        },
        {
          "name": "_addedValue",
          "type": "uint256"
        }
      ],
      "name": "increaseApproval",
      "outputs": [
        {
          "name": "",
          "type": "bool"
        }
      ],
      "payable": false,
      "stateMutability": "nonpayable",
      "type": "function"
    },
    {
      "constant": true,
      "inputs": [
        {
          "name": "_owner",
          "type": "address"
        },
        {
          "name": "_spender",
          "type": "address"
        }
      ],
      "name": "allowance",
      "outputs": [
        {
          "name": "",
          "type": "uint256"
        }
      ],
      "payable": false,
      "stateMutability": "view",
      "type": "function"
    },
    {
      "payable": false,
      "stateMutability": "nonpayable",
      "type": "fallback"
    },
    {
      "anonymous": false,
      "inputs": [
        {
          "indexed": true,
          "name": "owner",
          "type": "address"
        },
        {
          "indexed": true,
          "name": "spender",
          "type": "address"
        },
        {
          "indexed": false,
          "name": "value",
          "type": "uint256"
        }
      ],
      "name": "Approval",
      "type": "event"
    },
    {
      "anonymous": false,
      "inputs": [
        {
          "indexed": true,
          "name": "_from",
          "type": "address"
        },
        {
          "indexed": true,
          "name": "_to",
          "type": "address"
        },
        {
          "indexed": true,
          "name": "_value",
          "type": "uint256"
        },
        {
          "indexed": false,
          "name": "_data",
          "type": "bytes"
        }
      ],
      "name": "Transfer",
      "type": "event"
    },
    {
      "anonymous": false,
      "inputs": [
        {
          "indexed": true,
          "name": "from",
          "type": "address"
        },
        {
          "indexed": true,
          "name": "to",
          "type": "address"
        },
        {
          "indexed": false,
          "name": "value",
          "type": "uint256"
        }
      ],
      "name": "Transfer",
      "type": "event"
    },
    {
      "constant": false,
      "inputs": [
        {
          "name": "_from",
          "type": "address"
        },
        {
          "name": "_to",
          "type": "address"
        },
        {
          "name": "_value",
          "type": "uint256"
        }
      ],
      "name": "transferFrom",
      "outputs": [
        {
          "name": "success",
          "type": "bool"
        }
      ],
      "payable": false,
      "stateMutability": "nonpayable",
      "type": "function"
    },
    {
      "constant": false,
      "inputs": [
        {
          "name": "_from",
          "type": "address"
        },
        {
          "name": "_to",
          "type": "address"
        },
        {
          "name": "_value",
          "type": "uint256"
        },
        {
          "name": "_data",
          "type": "bytes"
        }
      ],
      "name": "transferFrom",
      "outputs": [
        {
          "name": "",
          "type": "bool"
        }
      ],
      "payable": false,
      "stateMutability": "nonpayable",
      "type": "function"
    }
  ],
  "bytecode": "0x6060604052341561000f57600080fd5b610af28061001e6000396000f30060606040526004361061008a5763ffffffff60e060020a600035041663095ea7b3811461009a57806318160ddd146100d057806323b872dd146100f5578063661884631461011d57806370a082311461013f578063a9059cbb1461015e578063ab67aa5814610180578063be45fd62146101ec578063d73dd62314610251578063dd62ed3e14610273575b341561009557600080fd5b600080fd5b34156100a557600080fd5b6100bc600160a060020a0360043516602435610298565b604051901515815260200160405180910390f35b34156100db57600080fd5b6100e3610304565b60405190815260200160405180910390f35b341561010057600080fd5b6100bc600160a060020a036004358116906024351660443561030a565b341561012857600080fd5b6100bc600160a060020a0360043516602435610329565b341561014a57600080fd5b6100e3600160a060020a0360043516610423565b341561016957600080fd5b6100bc600160a060020a036004351660243561043e565b341561018b57600080fd5b6100bc600160a060020a036004803582169160248035909116916044359160849060643590810190830135806020601f8201819004810201604051908101604052818152929190602084018383808284375094965061045b95505050505050565b34156101f757600080fd5b6100bc60048035600160a060020a03169060248035919060649060443590810190830135806020601f8201819004810201604051908101604052818152929190602084018383808284375094965061075195505050505050565b341561025c57600080fd5b6100bc600160a060020a03600435166024356109bd565b341561027e57600080fd5b6100e3600160a060020a0360043581169060243516610a61565b600160a060020a03338116600081815260026020908152604080832094871680845294909152808220859055909291907f8c5be1e5ebec7d5bd14f71427d1e84f3dd0314c0f7b2291e5b200ac8c7c3b9259085905190815260200160405180910390a350600192915050565b60015490565b6000610314610ab4565b6103208585858461045b565b95945050505050565b600160a060020a0333811660009081526002602090815260408083209386168352929052908120548083111561038657600160a060020a0333811660009081526002602090815260408083209388168352929052908120556103bd565b610396818463ffffffff610a8c16565b600160a060020a033381166000908152600260209081526040808320938916835292905220555b600160a060020a0333811660008181526002602090815260408083209489168084529490915290819020547f8c5be1e5ebec7d5bd14f71427d1e84f3dd0314c0f7b2291e5b200ac8c7c3b925915190815260200160405180910390a35060019392505050565b600160a060020a031660009081526020819052604090205490565b6000610448610ab4565b610453848483610751565b949350505050565b600080600160a060020a038516151561047357600080fd5b600160a060020a03861660009081526020819052604090205484111561049857600080fd5b600160a060020a03808716600090815260026020908152604080832033909416835292905220548411156104cb57600080fd5b600160a060020a0386166000908152602081905260409020546104f4908563ffffffff610a8c16565b600160a060020a038088166000908152602081905260408082209390935590871681522054610529908563ffffffff610a9e16565b600160a060020a038087166000908152602081815260408083209490945589831682526002815283822033909316825291909152205461056f908563ffffffff610a8c16565b600160a060020a0380881660009081526002602090815260408083203390941683529290528181209290925573__ERC223Utils___________________________91631627905591889190516020015260405160e060020a63ffffffff8416028152600160a060020a03909116600482015260240160206040518083038186803b15156105fb57600080fd5b6102c65a03f4151561060c57600080fd5b50505060405180519050156106fe575083600160a060020a03811663c0ee0b8a8786866040518463ffffffff1660e060020a0281526004018084600160a060020a0316600160a060020a0316815260200183815260200180602001828103825283818151815260200191508051906020019080838360005b8381101561069c578082015183820152602001610684565b50505050905090810190601f1680156106c95780820380516001836020036101000a031916815260200191505b50945050505050600060405180830381600087803b15156106e957600080fd5b6102c65a03f115156106fa57600080fd5b5050505b84600160a060020a031686600160a060020a03167fddf252ad1be2c89b69c2b068fc378daa952ba7f163c4a11628f55a4df523b3ef8660405190815260200160405180910390a350600195945050505050565b600080600160a060020a038516151561076957600080fd5b600160a060020a03331660009081526020819052604090205484111561078e57600080fd5b600160a060020a0333166000908152602081905260409020546107b7908563ffffffff610a8c16565b600160a060020a0333811660009081526020819052604080822093909355908716815220546107ec908563ffffffff610a9e16565b600160a060020a0386166000908152602081905260408082209290925573__ERC223Utils___________________________916316279055918891516020015260405160e060020a63ffffffff8416028152600160a060020a03909116600482015260240160206040518083038186803b151561086857600080fd5b6102c65a03f4151561087957600080fd5b505050604051805190501561096b575083600160a060020a03811663c0ee0b8a3386866040518463ffffffff1660e060020a0281526004018084600160a060020a0316600160a060020a0316815260200183815260200180602001828103825283818151815260200191508051906020019080838360005b838110156109095780820151838201526020016108f1565b50505050905090810190601f1680156109365780820380516001836020036101000a031916815260200191505b50945050505050600060405180830381600087803b151561095657600080fd5b6102c65a03f1151561096757600080fd5b5050505b84600160a060020a031633600160a060020a03167fddf252ad1be2c89b69c2b068fc378daa952ba7f163c4a11628f55a4df523b3ef8660405190815260200160405180910390a3506001949350505050565b600160a060020a0333811660009081526002602090815260408083209386168352929052908120546109f5908363ffffffff610a9e16565b600160a060020a0333811660008181526002602090815260408083209489168084529490915290819020849055919290917f8c5be1e5ebec7d5bd14f71427d1e84f3dd0314c0f7b2291e5b200ac8c7c3b92591905190815260200160405180910390a350600192915050565b600160a060020a03918216600090815260026020908152604080832093909416825291909152205490565b600082821115610a9857fe5b50900390565b600082820183811015610aad57fe5b9392505050565b602060405190810160405260008152905600a165627a7a723058202c4a2e6140cbaf80699b043e126d35ee75471392db9382c931c57d78a053fca20029",
  "source": "pragma solidity ^0.4.19;\n\nimport \"zeppelin-solidity/contracts/token/ERC20/StandardToken.sol\";\n\nimport './ERC223_BasicToken.sol';\nimport './ERC223_ReceivingInterface.sol';\nimport './ERC223_Utils.sol';\n\n/**\n * @title ERC223 standard token implementation.\n */\ncontract ERC223StandardToken is ERC223BasicToken, StandardToken {\n\n    using SafeMath for uint256;\n\n\n    // Standard function transfer similar to ERC20 transfer with no _data .\n    // Added due to backwards compatibility reasons .\n    function transferFrom(address _from, address _to, uint256 _value) public returns (bool success) {\n\n      bytes memory empty;\n      return transferFrom(_from, _to, _value, empty);\n\n    }\n    /**\n     * @dev Transfer tokens from one address to another\n     * @param _from address The address which you want to send tokens from\n     * @param _to address The address which you want to transfer to\n     * @param _value uint256 the amount of tokens to be transferred\n     * @param _data bytes data to attach that will be stored as event\n     */\n    function transferFrom(address _from, address _to, uint256 _value, bytes _data) public returns (bool) {\n      require(_to != address(0));\n      require(_value <= balances[_from]);\n      require(_value <= allowed[_from][msg.sender]);\n\n      balances[_from] = balances[_from].sub(_value);\n      balances[_to] = balances[_to].add(_value);\n      allowed[_from][msg.sender] = allowed[_from][msg.sender].sub(_value);\n\n      if(ERC223Utils.isContract(_to)) {\n        ERC223ReceivingInterface receiver = ERC223ReceivingInterface(_to);\n        receiver.tokenFallback(_from, _value, _data);\n      }\n\n      Transfer(_from, _to, _value);\n      return true;\n    }\n\n}\n",
  "sourcePath": "/Users/paco/Development/amon/token-contract/contracts/ERC223/ERC223_StandardToken.sol",
  "compiler": {
    "name": "solc",
    "version": "0.4.19+commit.c4cbbb05.Emscripten.clang"
  },
  "schemaVersion": "1.0.1",
  "updatedAt": "2018-02-22T15:06:12.341Z"
}